:020000040800F2
:10000000C804002011180008690800086B080008DF
:1000100000000000000000000000000000000000E0
:100020000000000000000000000000006D08000853
:1000300000000000000000006F08000871080008C0
:10004000D70600080000000067080008070C000839
:10005000E30E00089B1000088316000887160008AE
:1000600000000000EF170008FB1700082D1800081B
:100070002F1800083118000833180008000000008D
:100080007908000800000000000000008308000854
:10009000000000003518000837180008391800085B
:1000A000000000003B180008000000003D18000898
:1000B00010B5040001D1012010BD3D20205C0028B6
:1000C00004D13C216054200000F074FB15E00221B3
:1000D0003D228154016801220B6813430B603D21CE
:1000E00042540020704700680121C2680A43C26080
:1000F0000268114301600020704702203D216054D6
:10010000211D206800F026FA01203D2160540020C6
:1001100010BD0400080006D0042908D008290AD020
:100120000C290CD010E02068C26802230AE0206885
:10013000C268042306E02068C268082302E0206841
:10014000C26810231343C3600122206800F0B8FA8C
:1001500020680A49884205D00949884202D01149DD
:10016000884204D1416C802212020A434264016831
:1001700001220A430260002010BD0000002C014053
:100180000044014010B5040001D1012010BD3D2004
:10019000205C002804D13C216054200000F062FB68
:1001A000ABE700000048014010B50400080006D08D
:1001B000042908D008290AD00C290CD010E02068A6
:1001C000C26802230AE02068C268042306E02068AF
:1001D000C268082302E02068C26810231343C3608A
:1001E0000122206800F06CFA2068C0E7F8B504002E
:1001F0002068002502260169314015D0C1683140D0
:1002000012D00221C9430161012121778069800751
:1002100003D0200000F098FB05E0200000F0B4FBC4
:10022000200000F0B2FB25772068042701693940DF
:1002300016D0C168394013D00421C9430161267723
:100240008069C0218900014003D0200000F022FB1A
:1002500005E0200000F098FB200000F096FB2577D9
:10026000206808260169314014D0C168314011D09E
:100270000821C94301612777C069800703D02000A6
:1002800000F084FB05E0200000F07EFB200000F081
:100290007CFB25772068102102690A4016D0C268CD
:1002A000114013D01021C94301612677C069C021D4
:1002B0008900014003D0200000F068FB05E0200029
:1002C00000F062FB200000F060FB25772068012130
:1002D00002690A4008D0C268114005D00121C94313
:1002E0000161200000F038FB2068802102690A408B
:1002F00008D0C268114005D08021C94301612000A7
:1003000000F045FB2068402102690A4008D0C2681D
:10031000114005D04021C9430161200000F038FBA5
:100320002068202102690A4008D0C268114005D027
:100330002021C9430161200000F02BFBF1BDFEB577
:1003400005003C20285C012801D10220FEBD0120CF
:100350003C23E85402203D23E8540C27FF430C00C3
:10036000002A0DD1E36862682168286800F030F93E
:10037000286881690F40876128688169A26810E058
:10038000364E042A10D1E36862682168286800F0BC
:100390004EF9286881690E40866128688169A268E3
:1003A00012020A43826152E0082AE06825D161689E
:1003B000019121682A68136A294E1E401662D3698A
:1003C000166A00960326B343019E1E43F0239E4304
:1003D000000103403343D361009B224818400902C7
:1003E00080239B001940014311622868C1690F40B6
:1003F000C7612868C169A26827E001906068216828
:100400002A68136A184F1F401762D3690097174F65
:100410001F4003023B4316481840019B1B03F02773
:100420003F021F400743D761009B12481840090351
:1004300080239B011940014311622868C1690E4065
:10044000C6612868C169A26812020A43C26101201C
:100450003D21685400203C216854FEBDFFF3FFFF9E
:10046000FFFEFFFFFFFDFFFFFFEFFFFFFFFCFFFFB2
:10047000FF0FFFFFFFDFFFFF70B504003C20205C93
:10048000012801D1022070BD26003C3601253570BF
:1004900002203D22A05420688268484B13408360AC
:1004A0000868002845D0102845D0202845D030289D
:1004B00045D0402836D0502826D060282BD0702830
:1004C0000CD02A03904203D05200904210D03AE060
:1004D0002068816807229143816034E0CB684A68D4
:1004E0008968206800F0D7F820688168772208E0E2
:1004F000CB684A688968206800F0CDF82068816878
:10050000AA030A4382601EE0CA684968206800F0B6
:100510007DF8502114E0CA684968206800F0A1F80D
:1005200060210DE0CA684968206800F06FF840213A
:1005300006E0002104E0102102E0202100E030214B
:10054000206800F0A0F8FFE73D202554002030701F
:1005500070BD0000F0B50668194A1A4B1A4C1B4DC5
:10056000A84201D0A04206D17027BE4337004E6892
:100570003E43A84208D0A04206D0234CA04203D05C
:10058000984201D0904203D1484C3440CE68264373
:100590008024A6434C69344304608C68C4620C68B0
:1005A0008462A84203D0984201D0904201D10969E7
:1005B000016301214161F0BD000000008800FFFFE0
:1005C000004801400044014000040040002C01406C
:1005D00070B5046A0125AC4304628569046A344E2F
:1005E000B04202D0334EB04202D10326B54300E000
:1005F00001222A43F025AA431B011D4015438561B2
:100600000A22944329E000000020004030B5036A2C
:10061000046A0125AC4304628469F025AC431201ED
:10062000224382610A2293431943016230BD70B5AF
:10063000046A1025AC4304628569046A1B4E2E408F
:10064000120232431C4D15401A03F0231B021340C3
:100650002B438361A022944309010A402243026292
:1006600070BD30B5036A1024A34303628469036A32
:10067000114D254012032A438261A02293430901B0
:100680001943016230BD826870239A430A430721EF
:1006900011438160704730B58468084D2540294377
:1006A0000A4319021143816030BD0000FFFCFFFFC7
:1006B000002C014000040040FF0FFFFFFF00FFFF80
:1006C00010B5036A01248C40A3430362036A8A4085
:1006D0001A43026210BDFEE770B58AB006A8102169
:1006E00000F058F95DA003C804AA03C268461021AF
:1006F00000F050F9524D534828602F2068600024C4
:10070000AC605148E8602C618020A8612800FFF7A8
:10071000CFFC002801D000F075FA8020400106903F
:1007200006A92800FFF7A8FE002801D000F06AFA09
:100730002800FFF727FD002801D000F063FA049499
:10074000059404A9280000F05FFA002801D000F009
:1007500059FA022600960120019002940394002287
:1007600069462800FFF7EBFD002801D000F04AFAA7
:1007700000940196042269462800FFF7E0FD002856
:1007800001D000F03FFA0AB070BD80B52F48304963
:1007900001603049416000218160FA229200C2600C
:1007A000016180218161FFF783FC002801D000F006
:1007B00029FA01BD10B586B0040001A8142100F08B
:1007C000E9F8216824481F4A914223D10221826816
:1007D0000A43826082680A400092009A0A04036811
:1007E000134303600068024000920098402001908B
:1007F00002910020039004900120059001A990200F
:10080000C00500F029FA00220021102000F013FB9F
:10081000102010E00E4A91420FD1810D82680A43E8
:10082000826080680140009100980022002113201E
:1008300000F001FB132000F002FB06B010BD000029
:10084000180000200004004070170000580000202D
:1008500000200040BF120000141002400000000001
:10086000000000007047FEE77047FEE770477047E2
:1008700080B500F007FB01BD80B53E48FFF7B6FC30
:1008800001BD80B53C480121C9430268116100F0F7
:10089000A0F901BD70B50068806B384DA9794A0098
:1008A000AA716B79012680210B4202D001241443E6
:1008B000AC715A006A712B790B4202D001241443A7
:1008C0006C715A002A71EB780B4202D00124144358
:1008D0002C715A00EA70AB780B4202D00124144309
:1008E000EC705A00AA706B780B4202D001241443BA
:1008F000AC705A006A702B780B4202D00121114370
:100900006970590029702C7A1D4A8218C82A02D2AF
:100910000120084304E0C938962804D2FE2008408C
:100920002870641C04E00721280000F033F801243B
:10093000E0B2382806D300246E720722290011483D
:1009400000F0C2FA2C7270BD006800214162C168DB
:1009500001220A43C260704710B50068C1680122D5
:100960009143C160054C0721200000F013F80020DE
:10097000207210BD1800002058000020B800002090
:100980000CFEFFFF00000020704770477047704763
:1009900070477047002200BF094202D0491E4254EE
:1009A000FCD17047FEB500F09DFA00F0EEF800F0C3
:1009B000A9FAFFF791FEFFF7E8FE8D48FFF793FBDA
:1009C0008C4C2000FFF783FB00212000FFF7ECFB9D
:1009D00004212000FFF7E8FB8748009017200099CA
:1009E000087100994871009988710099C87100993F
:1009F00088730099C873814C00262CE0607B002826
:100A000027D01720009988710099C8710099087142
:100A10000099487100990E7000994E7000998E707F
:100A20000099CE702573E68113E0082911DB267446
:100A30002673132000990870112000994870142023
:100A4000009988700099C870152000990871009964
:100A5000487100F0BDFA0125694800780028CDD022
:100A600067490E706673207B0028F2D0207C401C02
:100A70002074A07801900A2100F0E0FA00984170FB
:100A800001980A2100F0DAFA0A2100F0D7FA00985A
:100A90000170607801900A2100F0D0FA0098C170CE
:100AA00001980A2100F0CAFA0A2100F0C7FA00985A
:100AB0008170E0780F210F220240009B1A72020918
:100AC000009B5A7222790F231340009FBB721309B7
:100AD000009FFB7263791940009F39731909009FC9
:100AE0007973A178032903D1009FB971A57304E03C
:100AF000022902D1009FF971E573217C02292CDBC8
:100B0000257A854205D1607A904202D1A07A984236
:100B100026D026742673132000990870112000999E
:100B200048701420009988700099C87013200099AB
:100B3000087100994871009988710099C87117204F
:100B40000099087200994872009988720099C872D9
:100B500000990873009948737BE720726272A37250
:100B6000E07B002801D0A07B002800D15DE726743F
:100B700026731020009908701120009948701220E7
:100B8000009988700099C87063E710B590B004A808
:100B90003021FFF7FFFE68461021FFF7FBFE012022
:100BA0000490059002240C9401040D91A021890366
:100BB0000E910F9004A800F071FA072000900194A4
:100BC0000020029003900121684600F041FC10B023
:100BD00010BD0A48417C027B002A06D1491CCAB2DA
:100BE0001F2A02DB0121417300214174704700007C
:100BF000580000201800002098000020000000206D
:100C0000C10000207047FEE770B53C22825C012ADB
:100C100001D1022070BD02003C3201231370022476
:100C20003D254455046865687026B54365600468D1
:100C300065680E682E4366600468A5688026B54323
:100C4000A5600468A56849682943A160FFE73D21C4
:100C500043540020107070BDFFB50A00002301004E
:100C600031E0052403E05F4CA142FAD10324AC40FB
:100C70003443029804605C480568019EF4432540B3
:100C80005668F60302D52E00019D35430560456880
:100C900025405668B60302D52E00019D35434560B8
:100CA000856825405668F60202D52E00019D354321
:100CB0008560C5682C405568AD0202D52500019CB1
:100CC0002C43C4605B1C10680400DC4000D181E050
:100CD000012401259D4003950540019501980028B8
:100CE000F0D098006D4668705068022801D0122834
:100CF00011D1D80880000D18286A6E4677781C2616
:100D00003E400F27B740B8431769BC4637006646D8
:100D1000BE4006432E620D6858006E4630700320B8
:100D200037780326BE40F74302973E462E4055686B
:100D300005406F463F78BD4035430D605568012D35
:100D400005D0022D03D0112D01D0122D11D18E68A6
:100D5000029D3540D6686F463F78BE402E438E6078
:100D60004D68039EB5435668360926409E402E4383
:100D70004E60CE68029D354096686F463F78BE4013
:100D80002E43CE605568ED009CD5184D2D68254347
:100D9000164E3560356825400295029D144D9E081B
:100DA000B600AD1902952E686D466F780C253D4052
:100DB0000F27AF40BE439027FF05B94201D1002461
:100DC00055E70C4FB942FBD00B4CA14200D04AE78B
:100DD00002244CE7FFBD002A01D081617047816287
:100DE00070470000000C0048000401401810024049
:100DF00008000140000400480008004810B5C20087
:100E000018231340FF249C40E2438907090E9940B0
:100E1000030007D5174B0007000F08388008800033
:100E2000181803E014489B089B00C01803681A4078
:100E30001143016010BD80B5FFF7E0FF01BD012146
:100E4000C006C00E81400D480160704710B5401EBD
:100E500080214904884201D3012010BD084C606004
:100E600003210020C043FFF7C9FF0020A060072135
:100E7000216010BD1CED00E000E400E000E100E0B6
:100E800010E000E002480168491C0160704700BFA3
:100E9000C400002070B4103A03D378C9103A78C067
:100EA000FBD2530701D318C918C001D508C908C01F
:100EB000D20704D30B880380891C801C002A01D52B
:100EC0000B78037070BC70478B0701D18307E1D0AA
:100ED000124205D00B78491C0370401C521EF9D1F8
:100EE0007047FEE780B50648016810220A43026099
:100EF000002000F08DFB00F09DFB002002BD0000F3
:100F00000020024010B586B001A81421FFF742FD71
:100F10008020C00312490A6802430A600A68104030
:100F200000900098802080020A6802430A600968E5
:100F30000840009000989024E4050022072120003A
:100F4000FFF749FF07200190012002900020039045
:100F50000320049001A92000FFF77EFE06B010BD1B
:100F60001410024010B59024E40500220121200055
:100F7000FFF731FF00BF00BF012201212000FFF772
:100F80002AFF00BF00BF002201212000FFF723FF3E
:100F900010BD000070B508259026F6050400200657
:100FA00001D5012200E0002204213000FFF713FFE9
:100FB0006400002202213000FFF70DFF00BF00BFD8
:100FC000012202213000FFF706FF6D1EE7D170BD40
:100FD00070B5134C102221002000103000F042FBAD
:100FE00000281BD0200010302ECC2EC0103C103812
:100FF00000BF00BFFFF7B6FF002600BF09A5F0B293
:101000000F214140605C285CFFF7C4FF761CF0B202
:101010001028F4DB00BF00BFFFF7A4FF70BD000085
:1010200098000020C0F9A4B0999282F8809088833B
:10103000C6A1868E8C88928EC7BFBFFFCA0F00D014
:10104000494203105A400DD004B500D3404200F08D
:1010500009F8009AD20701D34942124200D5404212
:1010600004BD0000094214D088420FD30122030CB2
:1010700001D100041204002300185B418B4200D30D
:101080005B1A5241F8D3190010007047010000208C
:10109000704708B500F0F6FA08BDFEE7F1B582B07A
:1010A000B14C0078C00700D4FEE08025AD02606836
:1010B0000C210140042907D060680C210140082957
:1010C0000BD16068C00308D52068054038D002986D
:1010D0004068002826D10120FEBD02984168012900
:1010E00002D1206869080BE0A048A14A00290AD073
:1010F000052908D120686900014321602068D14397
:101100000143216005E021680A402260216808400F
:1011100020600298406800280DD000F0B5FA060063
:101120002068284000D0BFE000F0AEFA801B6528A0
:10113000F6D30320FEBD00F0A7FA06002068284081
:1011400000D1B1E000F0A0FA801B6528F6D3F0E7EB
:1011500000F09AFA801B022800D8D6E0E9E702984E
:10116000C068002820680FD001210143216000F0F1
:101170008BFA06002068800700D5AEE000F084FA04
:10118000801B0228F6D9D4E701218843206000F0B3
:101190007BFA06002068800700D4A6E000F074FA0D
:1011A000801B0228F6D9C4E701218843606200F061
:1011B0006BFA0600606A800700D4AAE000F064FAC7
:1011C000801B0228F6D9B4E70420C0430122D24391
:1011D00000290AD0052908D1206A0421014321628F
:1011E000206A01210143216205E0216A0A4022624E
:1011F000216A08402062954F0298806800280CD030
:1012000000F042FA0600206A800700D5B9E000F03D
:101210003BFA801BB842F6D38BE700F035FA0600A4
:10122000206A800700D4ACE000F02EFA801BB842A0
:10123000F6D37EE700F028FA801B022800D8BDE034
:1012400077E700F021FA801B022800D8D6E070E78B
:101250000421C9438842606B03D104218843606341
:10126000B0E0042101436163606B01218843606346
:1012700000F00AFA0600606B800700D4A9E000F0D5
:1012800003FA801B0228F6D953E70140216000F0E1
:10129000FBF906002068800100D4D4E000F0F4F9E6
:1012A000801B0228F6D944E70C25029800788007B5
:1012B0001BD56068284008D060682840082800D006
:1012C0004DE76068C00300D549E72068800704D572
:1012D0000298C068012800D0FDE62068F821884304
:1012E00002990969C900014321600298007800074A
:1012F0000FD50298C0690028606A00D154E7012127
:101300000143616200F0C0F90600606A800700D402
:101310001EE70298007840073AD500200090802010
:101320004005E169014008D1E1690143E161E169FA
:101330000840009000980120009090480068C00587
:1013400018D48E480068A10D01438C48016000F05C
:101350009BF9060089480068C0050BD400F094F999
:10136000801B6528F6D3E4E600100240FFFFFBFF78
:10137000FFFFFEFF02988168012900D024E7206A60
:1013800030E70098002803D0E0698D490140E16111
:1013900002980078C0061CD502984069F827FF43E0
:1013A000012800D054E7606B042101436163606B46
:1013B00001210143616300F067F90600606B80075B
:1013C00000D437E7606B074002988069C00038435B
:1013D00060630298006A002835D061680D40082DCE
:1013E00000D178E677490228206800D04DE7014017
:1013F000216000F049F906008025AD0420682840EE
:1014000000D01EE7E06A0F2188430299C96A0143B0
:10141000E16260686C4901400298806A0843029961
:10142000496A01436160206869080143216000F056
:101430002BF906002068284005D100F025F9801B13
:101440000228F7D975E60020FEBD000089130000D0
:10145000F3B581B00127FF4301245C4909682140AD
:10146000029A91420AD259490A683A40029B1343B0
:101470000B6009682140029A914272D10090544D4C
:10148000022000990968014006D06968F022914362
:10149000009A92680A436A6000990968214050D016
:1014A00000994968012902D12868800303E00229D4
:1014B00003D12868800103D453E02A68104050D03B
:1014C0006868032290430143696000F0DDF806007C
:1014D0000098406801280CD168680C21014004295B
:1014E0002FD000F0D1F8801B3A498842F4D3032072
:1014F000FEBD022837D168680C210140082920D0A0
:1015000000F0C2F8801B33498842F4D3EFE700981B
:101510000078400706D568682F4901400098C068E8
:101520000843686000F02CF82C496A681206120F14
:10153000895CC8402A490860002000F069F8002052
:10154000FEBD22480299026822409142DFD2016822
:101550000F400299394301600068044002988442B8
:10156000D5D00120FEBD68680C210140E9D000F013
:101570008BF8801B17498842F5D3B8E7007000400C
:10158000184B196818480C220A40082A00D07047E6
:1015900030B50F2216A48D0C1540645D9B6AC903FB
:1015A00007D500BF16A11A40895CFFF75BFD6043B9
:1015B00030BD20000D49484330BD094800687047E0
:1015C000FFFFFFEFFFFFFFFEFFFFC2FF0020024013
:1015D0000010024089130000FFF8FFFFF416000816
:1015E000140000200410024000127A0000093D009F
:1015F00002030405060708090A0B0C0D0E0F101054
:101600000102030405060708090A0B0C0D0E0F1052
:1016100010B50400FFF7D1FFFA218900FFF722FD82
:10162000FFF714FC002221000020C043FFF703FC59
:10163000002010BD81B0012009490A6802430A60F8
:101640000A68104000900098802040054A680243D4
:101650004A60496808400090009801B0704700BF98
:1016600018100240A446521E08D303780C78401C80
:10167000491CA342F7D0181B6446704700206446FB
:101680007047FEE77047FEE701480068704700BFFB
:10169000C40000201148016801220A430260416829
:1016A0000F4A0A40426001680E4A0A40026001681F
:1016B0000D4A0A40026041680C4A0A404260C16A11
:1016C0000F229143C162016B094A0A400263416BD8
:1016D0000122914341630021816070470010024064
:1016E0000CB8FF08FFFFF6FEFFFFFBFFFFFFC0FF88
:1016F000ECFEFFFF000000000000000001020304F8
:101700000607080970B40123002413E00168001DD6
:10171000194202D04D466D1E49190C60091D121F59
:10172000042AFAD20D00960701D50C80AD1C1A4090
:1017300000D02C700268001D002AE7D170BC7047F1
:1017400030B501684118446862088A188368E40764
:101750000DD54C461B190AE00C7864B2491C0D7873
:10176000491C1D705B1C002C05D5641CF9D19142ED
:10177000F2D10C3030BD641EF1D5F8E710B5074941
:1017800079441831064C7C44163404E0081D0A687C
:10179000891888470100A142F8D110BD0800000057
:1017A0002400000061FFFFFFB000000018000020CF
:1017B000000000008DFFFFFF860000001400000005
:1017C0000000002000F00DF8002801D0FFF7D6FF40
:1017D00000BF00BF002000BF00BFFFF7E3F800F02C
:1017E00002F80120704780B500F002F801BDFEE765
:1017F0000746384600F002F8FBE7FEE780B500BF79
:1018000000BF024A11001820ABBEFBE72600020011
:101810000148804701480047951600082118000834
:1018200000BF00BF00BF00BFFFF7CCFFFEE7FEE731
:10183000FEE7FEE7FEE7FEE7FEE7FEE7FEE7F40071
:081840000001F80002127A0019
:0400000508001821B6
:00000001FF
