:020000040800F2
:10000000B0040020F9160008690800086B08000811
:1000100000000000000000000000000000000000E0
:100020000000000000000000000000006D08000853
:1000300000000000000000006F08000871080008C0
:10004000D70600080000000067080008EB0A000857
:10005000C70D0008AB0F000877150008D716000879
:1000600000000000E3160008251700082717000805
:10007000291700082B1700082D17000800000000A2
:100080007908000800000000000000008308000854
:10009000000000002F170008311700083317000870
:1000A00000000000351700080000000037170008A6
:1000B00010B5040001D1012010BD3D20205C0028B6
:1000C00004D13C216054200000F074FB15E00221B3
:1000D0003D228154016801220B6813430B603D21CE
:1000E00042540020704700680121C2680A43C26080
:1000F0000268114301600020704702203D216054D6
:10010000211D206800F026FA01203D2160540020C6
:1001100010BD0400080006D0042908D008290AD020
:100120000C290CD010E02068C26802230AE0206885
:10013000C268042306E02068C268082302E0206841
:10014000C26810231343C3600122206800F0B8FA8C
:1001500020680A49884205D00949884202D01149DD
:10016000884204D1416C802212020A434264016831
:1001700001220A430260002010BD0000002C014053
:100180000044014010B5040001D1012010BD3D2004
:10019000205C002804D13C216054200000F062FB68
:1001A000ABE700000048014010B50400080006D08D
:1001B000042908D008290AD00C290CD010E02068A6
:1001C000C26802230AE02068C268042306E02068AF
:1001D000C268082302E02068C26810231343C3608A
:1001E0000122206800F06CFA2068C0E7F8B504002E
:1001F0002068002502260169314015D0C1683140D0
:1002000012D00221C9430161012121778069800751
:1002100003D0200000F09DFB05E0200000F0BAFBB9
:10022000200000F0B8FB25772068042701693940D9
:1002300016D0C168394013D00421C9430161267723
:100240008069C0218900014003D0200000F022FB1A
:1002500005E0200000F09EFB200000F09CFB2577CD
:10026000206808260169314014D0C168314011D09E
:100270000821C94301612777C069800703D02000A6
:1002800000F08AFB05E0200000F084FB200000F075
:1002900082FB25772068102102690A4016D0C268C7
:1002A000114013D01021C94301612677C069C021D4
:1002B0008900014003D0200000F06EFB05E0200023
:1002C00000F068FB200000F066FB25772068012124
:1002D00002690A4008D0C268114005D00121C94313
:1002E0000161200000F03DFB2068802102690A4086
:1002F00008D0C268114005D08021C94301612000A7
:1003000000F04BFB2068402102690A4008D0C26817
:10031000114005D04021C9430161200000F03EFB9F
:100320002068202102690A4008D0C268114005D027
:100330002021C9430161200000F031FBF1BDFEB571
:1003400005003C20285C012801D10220FEBD0120CF
:100350003C23E85402203D23E8540C27FF430C00C3
:10036000002A0DD1E36862682168286800F030F93E
:10037000286881690F40876128688169A26810E058
:10038000364E042A10D1E36862682168286800F0BC
:100390004EF9286881690E40866128688169A268E3
:1003A00012020A43826152E0082AE06825D161689E
:1003B000019121682A68136A294E1E401662D3698A
:1003C000166A00960326B343019E1E43F0239E4304
:1003D000000103403343D361009B224818400902C7
:1003E00080239B001940014311622868C1690F40B6
:1003F000C7612868C169A26827E001906068216828
:100400002A68136A184F1F401762D3690097174F65
:100410001F4003023B4316481840019B1B03F02773
:100420003F021F400743D761009B12481840090351
:1004300080239B011940014311622868C1690E4065
:10044000C6612868C169A26812020A43C26101201C
:100450003D21685400203C216854FEBDFFF3FFFF9E
:10046000FFFEFFFFFFFDFFFFFFEFFFFFFFFCFFFFB2
:10047000FF0FFFFFFFDFFFFF70B504003C20205C93
:10048000012801D1022070BD26003C3601253570BF
:1004900002203D22A05420688268484B13408360AC
:1004A0000868002845D0102845D0202845D030289D
:1004B00045D0402836D0502826D060282BD0702830
:1004C0000CD02A03904203D05200904210D03AE060
:1004D0002068816807229143816034E0CB684A68D4
:1004E0008968206800F0D7F820688168772208E0E2
:1004F000CB684A688968206800F0CDF82068816878
:10050000AA030A4382601EE0CA684968206800F0B6
:100510007DF8502114E0CA684968206800F0A1F80D
:1005200060210DE0CA684968206800F06FF840213A
:1005300006E0002104E0102102E0202100E030214B
:10054000206800F0A0F8FFE73D202554002030701F
:1005500070BD0000F0B50668194A1A4B1A4C1B4DC5
:10056000A84201D0A04206D17027BE4337004E6892
:100570003E43A84208D0A04206D0234CA04203D05C
:10058000984201D0904203D1484C3440CE68264373
:100590008024A6434C69344304608C68C4620C68B0
:1005A0008462A84203D0984201D0904201D10969E7
:1005B000016301214161F0BD000000008800FFFFE0
:1005C000004801400044014000040040002C01406C
:1005D00070B5046A0125AC4304628569046A344E2F
:1005E000B04202D0334EB04202D10326B54300E000
:1005F00001222A43F025AA431B011D4015438561B2
:100600000A22944329E000000020004030B5036A2C
:10061000046A0125AC4304628469F025AC431201ED
:10062000224382610A2293431943016230BD70B5AF
:10063000046A1025AC4304628569046A1B4E2E408F
:10064000120232431C4D15401A03F0231B021340C3
:100650002B438361A022944309010A402243026292
:1006600070BD30B5036A1024A34303628469036A32
:10067000114D254012032A438261A02293430901B0
:100680001943016230BD826870239A430A430721EF
:1006900011438160704730B58468084D2540294377
:1006A0000A4319021143816030BD0000FFFCFFFFC7
:1006B000002C014000040040FF0FFFFFFF00FFFF80
:1006C00010B5036A01248C40A3430362036A8A4085
:1006D0001A43026210BDFEE770B58AB006A8102169
:1006E00000F05EF95DA003C804AA03C268461021A9
:1006F00000F056F9524D534828602F2068600024BE
:10070000AC605148E8602C618020A8612800FFF7A8
:10071000CFFC002801D000F0E7F9802040010690CE
:1007200006A92800FFF7A8FE002801D000F0DCF998
:100730002800FFF727FD002801D000F0D5F9049428
:10074000059404A9280000F0D1F9002801D000F098
:10075000CBF9022600960120019002940394002216
:1007600069462800FFF7EBFD002801D000F0BCF936
:1007700000940196042269462800FFF7E0FD002856
:1007800001D000F0B1F90AB070BD80B52F483049F2
:1007900001603049416000218160FA229200C2600C
:1007A000016180218161FFF783FC002801D000F006
:1007B0009BF901BD10B586B0040001A8142100F01A
:1007C000EFF8216824481F4A914223D10221826810
:1007D0000A43826082680A400092009A0A04036811
:1007E000134303600068024000920098402001908B
:1007F00002910020039004900120059001A990200F
:10080000C00500F09BF900220021102000F085FABD
:10081000102010E00E4A91420FD1810D82680A43E8
:10082000826080680140009100980022002113201E
:1008300000F073FA132000F074FA06B010BD000047
:10084000100000200004004070170000500000203D
:1008500000200040BF120000141002400000000001
:10086000000000007047FEE77047FEE770477047E2
:1008700080B500F079FA01BD80B54148FFF7B6FCBC
:1008800001BD80B53F480121C9430268116100F0F4
:1008900013F901BDF8B50068806B3B4D2C7A012639
:1008A000A97A002952D0A9794B00AB716A798021CD
:1008B0000A4202D001271F43AF7153006B712A799E
:1008C0000A4202D001271F436F7153002B71EA784F
:1008D0000A4202D001271F432F715300EB70AA7800
:1008E0000A4202D001271F43EF705300AB706A78B1
:1008F0000A4202D001271F43AF7053006B702A7861
:100900000A4202D0012119436970510029701F4A1F
:100910008218C82A02D20120084304E0C938962868
:1009200004D2FE2008402870641C04E0072128003F
:1009300000F036F80124E0B2382808D300246E72A3
:1009400007222900124800F031FA00E0AE722C7242
:10095000F1BD006800214162C16801220A43C26002
:10096000704710B50068C16801229143C160064C10
:100970000721200000F014F80020207210BD0000B4
:1009800010000020500000209C0000200CFEFFFF03
:1009900000000020704770477047704770477047ED
:1009A000002200BF094202D0491E4254FCD17047C8
:1009B000F8B500F009FA00F05BF800F015FAFFF75F
:1009C0008BFEFFF7E2FE4348FFF78DFB424C200011
:1009D000FFF77DFB00212000FFF7E6FB042120004C
:1009E000FFF7E2FB3D4D0DE0687A002808D000F0EB
:1009F00087FA0120287203E0047044708471C47186
:100A000000F058FA364800780028EDD00024344928
:100A10000C706C72287A0028F2D06E7830000A21AF
:100A200000F094FA2F48C17030000A2100F08EFACD
:100A30000A2100F08BFA2B488170AF7838000A2128
:100A400000F084FA2748417138000A2100F07EFA4C
:100A50000A2100F07BFA23480171022ECCD1032F2A
:100A6000CAD12C721721017041708171C171C7E721
:100A700010B590B004A83021FFF792FF684610210E
:100A8000FFF78EFF01200490059002240C940104CE
:100A90000D91A02189030E910F9004A800F086FA11
:100AA00007200090019400200290039001216846E5
:100AB00000F056FC10B010BD0848817A027A002A76
:100AC00006D1491CCAB2292A02DB01214172002148
:100AD00081727047500000201000002000000020AC
:100AE000A5000020940000207047FEE770B53C226E
:100AF000825C012A01D1022070BD02003C32012338
:100B0000137002243D254455046865687026B5437A
:100B10006560046865680E682E4366600468A568B1
:100B20008026B543A5600468A56849682943A1608B
:100B3000FFE73D2143540020107070BDFFB50A004F
:100B40000023010031E0052403E05F4CA142FAD10B
:100B50000324AC403443029804605C480568019E5D
:100B6000F44325405668F60302D52E00019D354317
:100B70000560456825405668B60302D52E00019DE4
:100B800035434560856825405668F60202D52E003B
:100B9000019D35438560C5682C405568AD0202D57E
:100BA0002500019C2C43C4605B1C10680400DC40E1
:100BB00000D181E0012401259D4003950540019568
:100BC00001980028F0D098006D466870506802289F
:100BD00001D0122811D1D80880000D18286A6E465D
:100BE00077781C263E400F27B740B8431769BC46AC
:100BF00037006646BE4006432E620D6858006E46BA
:100C00003070032037780326BE40F74302973E46F4
:100C10002E40556805406F463F78BD4035430D6016
:100C20005568012D05D0022D03D0112D01D0122DB4
:100C300011D18E68029D3540D6686F463F78BE4020
:100C40002E438E604D68039EB54356683609264094
:100C50009E402E434E60CE68029D354096686F469A
:100C60003F78BE402E43CE605568ED009CD5184DB0
:100C70002D682543164E3560356825400295029D46
:100C8000144D9E08B600AD1902952E686D466F781A
:100C90000C253D400F27AF40BE439027FF05B942CA
:100CA00001D1002455E70C4FB942FBD00B4CA142B7
:100CB00000D04AE702244CE7FFBD002A01D0816141
:100CC0007047816270470000000C0048000401403A
:100CD00018100240080001400004004800080048C5
:100CE00010B5C20018231340FF249C40E24389073B
:100CF000090E9940030007D5174B0007000F08386D
:100D000080088000181803E014489B089B00C01856
:100D100003681A401143016010BD80B5FFF7E0FF82
:100D200001BD0121C006C00E81400D480160704721
:100D300010B5401E80214904884201D3012010BD16
:100D4000084C606003210020C043FFF7C9FF00206A
:100D5000A0600721216010BD1CED00E000E400E070
:100D600000E100E010E000E002480168491C016079
:100D7000704700BFA800002070B4103A03D378C9B0
:100D8000103A78C0FBD2530701D318C918C001D557
:100D900008C908C0D20704D30B880380891C801CB3
:100DA000002A01D50B78037070BC70478B0701D106
:100DB0008307E1D0124205D00B78491C0370401C18
:100DC000521EF9D17047FEE780B50648016810222F
:100DD0000A430260002000F0A3FB00F0B3FB0020F8
:100DE00002BD00000020024010B586B001A8142109
:100DF000FFF7D6FD8020C00312490A6802430A604B
:100E00000A68104000900098802080020A6802431F
:100E10000A6009680840009000989024E4050022C8
:100E200007212000FFF749FF0720019001200290D1
:100E3000002003900320049001A92000FFF77EFE0C
:100E400006B010BD1410024010B59024E405002235
:100E500001212000FFF731FF00BF00BF0122012167
:100E60002000FFF72AFF00BF00BF00220121200061
:100E7000FFF723FF10BD000070B510259026F60582
:100E80000400200401D5012200E0002204213000EA
:100E9000FFF713FF6400002202213000FFF70DFF6F
:100EA00000BF00BF012202213000FFF706FF6D1EC8
:100EB000E7D170BD10B51048FFF7DEFF00BF00BFDF
:100EC000FFF7C2FF0D4C2178802252008A40FF209C
:100ED0000002904317A261180979515C0843FFF79B
:100EE000CBFF00BF00BFFFF7AFFF2078401C4007DB
:100EF000400F207010BD0000FFFF00009000002098
:100F000038B508249025ED05012204212800FFF7BB
:100F1000D4FE002202212800FFF7CFFE00BF00BF51
:100F2000012202212800FFF7C8FE641EECD1FFF762
:100F30008BFF31BDC0F9A4B0999282F880904079BE
:100F4000C63019120278001086AF9CFFCA0F00D07D
:100F5000494203105A400DD004B500D3404200F07E
:100F600009F8009AD20701D34942124200D5404203
:100F700004BD0000094214D088420FD30122030CA3
:100F800001D100041204002300185B418B4200D3FE
:100F90005B1A5241F8D3190010007047010000207D
:100FA000704708B500F0E6FA08BDFEE7F1B582B07B
:100FB000B14C0078C00700D4FEE08025AD02606827
:100FC0000C210140042907D060680C210140082948
:100FD0000BD16068C00308D52068054038D002985E
:100FE0004068002826D10120FEBD029841680129F1
:100FF00002D1206869080BE0A048A14A00290AD064
:10100000052908D120686900014321602068D14387
:101010000143216005E021680A4022602168084000
:1010200020600298406800280DD000F0A5FA060064
:101030002068284000D0BFE000F09EFA801B6528A1
:10104000F6D30320FEBD00F097FA06002068284082
:1010500000D1B1E000F090FA801B6528F6D3F0E7EC
:1010600000F08AFA801B022800D8D6E0E9E702984F
:10107000C068002820680FD001210143216000F0E2
:101080007BFA06002068800700D5AEE000F074FA15
:10109000801B0228F6D9D4E701218843206000F0A4
:1010A0006BFA06002068800700D4A6E000F064FA1E
:1010B000801B0228F6D9C4E701218843606200F052
:1010C0005BFA0600606A800700D4AAE000F054FAD8
:1010D000801B0228F6D9B4E70420C0430122D24382
:1010E00000290AD0052908D1206A04210143216280
:1010F000206A01210143216205E0216A0A4022623F
:10110000216A08402062954F0298806800280CD020
:1011100000F032FA0600206A800700D5B9E000F03E
:101120002BFA801BB842F6D38BE700F025FA0600B5
:10113000206A800700D4ACE000F01EFA801BB842A1
:10114000F6D37EE700F018FA801B022800D8BDE035
:1011500077E700F011FA801B022800D8D6E070E78C
:101160000421C9438842606B03D104218843606332
:10117000B0E0042101436163606B01218843606337
:1011800000F0FAF90600606B800700D4A9E000F0D7
:10119000F3F9801B0228F6D953E70140216000F0E3
:1011A000EBF906002068800100D4D4E000F0E4F9F7
:1011B000801B0228F6D944E70C25029800788007A6
:1011C0001BD56068284008D060682840082800D0F7
:1011D0004DE76068C00300D549E72068800704D563
:1011E0000298C068012800D0FDE62068F8218843F5
:1011F00002990969C900014321600298007800073B
:101200000FD50298C0690028606A00D154E7012117
:101210000143616200F0B0F90600606A800700D403
:101220001EE70298007840073AD500200090802001
:101230004005E169014008D1E1690143E161E169EB
:101240000840009000980120009090480068C00578
:1012500018D48E480068A10D01438C48016000F04D
:101260008BF9060089480068C0050BD400F084F9AA
:10127000801B6528F6D3E4E600100240FFFFFBFF69
:10128000FFFFFEFF02988168012900D024E7206A51
:1012900030E70098002803D0E0698D490140E16102
:1012A00002980078C0061CD502984069F827FF43D1
:1012B000012800D054E7606B042101436163606B37
:1012C00001210143616300F057F90600606B80075C
:1012D00000D437E7606B074002988069C00038434C
:1012E00060630298006A002835D061680D40082DBF
:1012F00000D178E677490228206800D04DE7014008
:10130000216000F039F906008025AD0420682840EE
:1013100000D01EE7E06A0F2188430299C96A0143A1
:10132000E16260686C4901400298806A0843029952
:10133000496A01436160206869080143216000F047
:101340001BF906002068284005D100F015F9801B24
:101350000228F7D975E60020FEBD000089130000C1
:10136000F3B581B00127FF4301245C49096821409E
:10137000029A91420AD259490A683A40029B1343A1
:101380000B6009682140029A914272D10090544D3D
:10139000022000990968014006D06968F022914353
:1013A000009A92680A436A6000990968214050D007
:1013B00000994968012902D12868800303E00229C5
:1013C00003D12868800103D453E02A68104050D02C
:1013D0006868032290430143696000F0CDF806007D
:1013E0000098406801280CD168680C21014004294C
:1013F0002FD000F0C1F8801B3A498842F4D3032073
:10140000FEBD022837D168680C210140082920D090
:1014100000F0B2F8801B33498842F4D3EFE700981C
:101420000078400706D568682F4901400098C068D9
:101430000843686000F02CF82C496A681206120F05
:10144000895CC8402A490860002000F069F8002043
:10145000FEBD22480299026822409142DFD2016813
:101460000F400299394301600068044002988442A9
:10147000D5D00120FEBD68680C210140E9D000F004
:101480007BF8801B17498842F5D3B8E7007000400D
:10149000184B196818480C220A40082A00D07047D7
:1014A00030B50F2216A48D0C1540645D9B6AC903EC
:1014B00007D500BF16A11A40895CFFF75BFD6043AA
:1014C00030BD20000D49484330BD094800687047D1
:1014D000FFFFFFEFFFFFFFFEFFFFC2FF0020024004
:1014E0000010024089130000FFF8FFFFE415000818
:1014F0000C0000200410024000127A0000093D0098
:1015000002030405060708090A0B0C0D0E0F101044
:101510000102030405060708090A0B0C0D0E0F1043
:1015200010B50400FFF7D1FFFA218900FFF722FD73
:10153000FFF7FEFB002221000020C043FFF7EDFB78
:10154000002010BD81B0012009490A6802430A60E9
:101550000A68104000900098802040054A680243C5
:101560004A60496808400090009801B0704700BF89
:10157000181002407047FEE701480068704700BF3E
:10158000A80000201148016801220A430260416856
:101590000F4A0A40426001680E4A0A400260016830
:1015A0000D4A0A40026041680C4A0A404260C16A22
:1015B0000F229143C162016B094A0A400263416BE9
:1015C0000122914341630021816070470010024075
:1015D0000CB8FF08FFFFF6FEFFFFFBFFFFFFC0FF99
:1015E000ECFEFFFF00000000000000000102030409
:1015F0000607080970B40123002413E00168001DE8
:10160000194202D04D466D1E49190C60091D121F6A
:10161000042AFAD20D00960701D50C80AD1C1A40A1
:1016200000D02C700268001D002AE7D170BC704702
:1016300030B401220168001D00290FD00368C318CF
:1016400044680830144202D04D466D1E64191D686E
:1016500025601B1D241D091FECD0F8E730BC704726
:1016600010B5074979441831064C7C44163404E01F
:10167000081D0A68891888470100A142F8D110BDE9
:1016800008000000280000006DFFFFFF9C00000024
:10169000100000200000000099FFFFFF1000000074
:1016A00068000000000000200000000000F00DF8BD
:1016B000002801D0FFF7D4FF00BF00BF002000BF0B
:1016C00000BFFFF775F900F002F80120704780B500
:1016D00000F002F801BDFEE70746384600F002F8C8
:1016E000FBE7FEE780B500BF00BF024A11001820EB
:1016F000ABBEFBE7260002000148804701480047D7
:1017000085150008191700080000000000000000FF
:101710000100000000127A0000BF00BF00BF00BF40
:10172000FFF7C4FFFEE7FEE7FEE7FEE7FEE7FEE7A2
:08173000FEE7FEE7FEE7FEE71D
:0400000508001719BF
:00000001FF
